:100000000C9471000C9499000C9499000C94990034
:100010000C9499000C9499000C9499000C94800A0B
:100020000C9499000C9499000C9499000C949900EC
:100030000C9499000C947B030C9499000C949900F7
:100040000C946F050C9499000C94E1060C94240711
:100050000C9499000C9499000C9499000C949900BC
:100060000C9405040C949900860193018E0189017A
:100070008E01930196019B01EA01B902CD02DC02D7
:100080000103070309030D0321032B0300000007ED
:100090000002010000030406000000000000000050
:1000A000010204081020408001020408102001020F
:1000B00004081020040404040404040402020202DC
:1000C00002020303030303030000000025002800CD
:1000D0002B0000000000240027002A0002006A0311
:1000E000E00711241FBECFEFD8E0DEBFCDBF11E087
:1000F000A0E0B1E0EEECF6E102C005900D92A8316F
:10010000B107D9F712E0A8E1B1E001C01D92A43017
:10011000B107E1F710E0C2EED0E004C02297FE0183
:100120000E94520BCE3DD107C9F70E9436080C94AD
:10013000650B0C940000CF93DF93EC016881617034
:1001400088E00E9439056881627089E00E94390563
:10015000688164708AE00E943905698161708BE072
:100160000E943905698162708CE00E9439056981BD
:1001700064708DE00E9439056A8161708EE00E9492
:1001800039056A8162708FE00E9439056A81647066
:1001900080E10E9439056B81617084E00E9439051D
:1001A0006B81627086E00E9439056B81647087E024
:1001B000DF91CF910C943905CF93DF93EC0161E08F
:1001C00085E00E94000561E082E00E94000560E099
:1001D00082E00E94390560E070E085E00E947804CA
:1001E00061E088E00E94000561E089E00E9400056E
:1001F00061E08AE00E94000561E08BE00E9400055A
:1002000061E08CE00E94000561E08DE00E94000545
:1002100061E08EE00E94000561E08FE00E94000531
:1002200061E080E10E94000561E084E00E94000539
:1002300061E086E00E94000561E087E00E94000521
:10024000CE01DF91CF910C949B000F931F93CF931E
:10025000DF93EC018A0120E030E0A9018D810E944A
:1002600043080E94B90548EC409F9001419F300D22
:100270001124260F371F3B832A83DF91CF911F91D3
:100280000F910895FC018681811102C014821782AA
:100290000895CF93DF93EC018C81861751F019827A
:1002A00018824E836C830E94B9057B836A8381E048
:1002B0008F83DF91CF910895CF92DF92EF92FF92DB
:1002C000CF93DF93EC01CA80DB80E12CF12C0E94FC
:1002D000B9056C157D058E059F0508F483C08C81DA
:1002E000823061F118F4813039F07CC08330B9F18B
:1002F000843009F44CC076C0E881F981E930F10519
:1003000008F070C0EC5CFF4F0C94500B41E050E0E3
:100310000FC041E050E06AE173E053C042E050E0BA
:100320006AEB72E04EC042E050E044C042E050E070
:100330006CE472E046C041E050E03CC088819981A5
:100340008130910521F088F445E050E013C08D81A3
:100350000E946B0A0E94B90568517C4F15C08881C4
:1003600099818130910549F018F0029799F13AC0CE
:1003700042E050E060E273E024C08D810E946B0A8D
:100380000E94B90568537F4F7B836A831DC08881B3
:1003900099818230910561F028F4009749F0019726
:1003A00061F020C08330910541F0049799F01AC0A4
:1003B00045E050E064E972E004C045E050E060E7E9
:1003C00073E0CE010E94250188819981019699836D
:1003D000888308C08D810E946B0ACE010E94420171
:1003E00019821882DF91CF91FF90EF90DF90CF902C
:1003F0000895DC01ED91FC910190F081E02D0994CC
:10040000E1E8F0E01082109285001092840016BAA4
:1004100081E080936F0010928000808185608083EE
:100420000895CF92DF92EF92FF92CF9340E052EC8B
:1004300061E070E085E491E00E945F071092240182
:1004400088E191E00E94DC0081E0809318018093B4
:10045000190180931A0180931B0188E191E00E94A9
:100460009B0040E061E08CE191E00E9449010E9424
:10047000B90560577E4FC0E06B01E12CF12C8091F3
:100480002301882369F18CE191E00E945C010E94C4
:10049000B905C616D706E806F90688F7E8E1F1E0DF
:1004A000C23060F08081992787FD9095959587955A
:1004B000819381E0EC31F807A9F708C08081880FAB
:1004C000990B819381E0EC31F807C1F788E191E065
:1004D0000E949B00CF5F0E94B90560577E4FCCCF32
:1004E00068EC70E080E090E00E94E805E12CF12CDF
:1004F000C7E068EC70E080E090E00E94E805C7018A
:10050000817099278C9F802D1124809318018093EE
:10051000190180931A0180931B0188E191E00E94E8
:100520009B008FEFE81AF80A87E0E816F10409F754
:1005300082E50E94DC0389E493E0909301018093BB
:100540000001CF91FF90EF90DF90CF900C940002CC
:10055000DC01862F4C91552747FD5095652F752F4F
:100560004930510508F084C0435C5F4FFA010C9498
:10057000500B81118DC060E070E085E491E00E9435
:10058000F90161E070E085E491E00E94F90160E02A
:1005900070E085E491E00C94F90112968C91129729
:1005A0001196EC91E43020F4F0E0E85EFE4F808399
:1005B00088E191E00C949B0013965C91139712963E
:1005C0004C9112971196EC91E43090F7F0E0E85ED0
:1005D000FE4F81E090E0042E01C0880F0A94EAF7F4
:1005E00080959081892321E030E0511102C020E004
:1005F00030E0042E01C0220F0A94EAF7282B208352
:10060000D7CF11966C9170E085E00C94780461E08E
:1006100001C060E082E00C94390511968C9111972D
:1006200012966C912FEF6203B0011124680F711DB7
:1006300087FD7A9520E030E0A901809121010C949A
:1006400043081092200110921D0110921C0180910C
:1006500021010C946B0A41E012968C9112971816A6
:100660000CF040E011966C918CE191E00C94490102
:1006700081110EC0E0914501F09146010280F381A5
:10068000E02D41E050E063E071E085E491E0099401
:100690000895FF920F931F93CF93DF93F82E10923C
:1006A00028011092290110922A0108E211E0E801C4
:1006B0008C2F801B8F1520F40E94EB038993F8CFB9
:1006C00061E088E291E0DF91CF911F910F91FF905F
:1006D0000C94A80283E08093210161E00E94000550
:1006E00010922301109218011092190110921A0110
:1006F00010921B0108951F920F920FB60F921124B2
:100700002F933F934F935F936F937F938F939F9319
:10071000AF93BF93EF93FF938091240186307CF4D5
:1007200085E491E00E944906892B49F41092240146
:1007300010928100109285001092840016BAFF91E9
:10074000EF91BF91AF919F918F917F916F915F9149
:100750004F913F912F910F900FBE0F901F901895C2
:10076000CF93DF9385E491E00E944906181619069D
:100770008CF4C0912401DD27C7FDD09585E491E07C
:100780000E947606CB5DDE4F8883809124018F5FC7
:100790008093240180912401833039F41092240144
:1007A00060E085E291E00E94A8028CE191E0DF9197
:1007B000CF910C945C0108958093BA00ECEBF0E0CB
:1007C00080818F7D80838081856480838FEF80939B
:1007D0003B017894089530913B012FEF230F2E3F7A
:1007E00090F480912B01ABE2B1E0ECE2F1E091E01A
:1007F0009E1B492F4E0F431718F441914D93F9CF8B
:1008000020933B01089580E008951F920F920FB648
:100810000F9211242F933F934F935F936F937F9386
:100820008F939F93AF93BF93EF93FF938091B90002
:10083000887F803AF1F128F4803641F0803869F001
:1008400043C0883AE1F0883BD1F03EC085EC80930C
:10085000BC008FEF80933B013AC09091BB00809128
:100860003B018F3F11F410923B0180913B0181319C
:10087000C0F4E82FF0E0E55DFE4F908312C0809158
:100880003B018F3F11F410923B01E0913B01E131BC
:1008900060F4F0E0E55DFE4F80818093BB008091C5
:1008A0003B018F5F80933B0102C01092BB0085EC3F
:1008B0000CC085EC8093BC00E0910001F091010137
:1008C00080913B01099503C085ED8093BC00FF91A9
:1008D000EF91BF91AF919F918F917F916F915F91B8
:1008E0004F913F912F910F900FBE0F901F90189531
:1008F0001F93CF93DF93182FEB0161E00E94000557
:10090000209711F460E004C0CF3FD10539F461E0D5
:10091000812FDF91CF911F910C943905E12FF0E0E9
:10092000E457FF4FE491E330F9F048F4E130B9F0D7
:10093000E230A1F584B5806284BDC8BD34C0E63024
:10094000E9F0E73019F1E43049F5809180008062E8
:1009500080938000D0938B00C0938A0024C084B51C
:10096000806884BDC7BD1FC080918000806880936F
:100970008000D0938900C093880015C08091B0009A
:1009800080688093B000C093B3000DC08091B00028
:1009900080628093B000C093B40005C0C038D10518
:1009A0000CF0B5CFAFCFDF91CF911F910895833079
:1009B00081F028F4813099F08230A1F008958630DA
:1009C000A9F08730B9F08430D1F4809180008F7D18
:1009D00003C0809180008F7780938000089584B554
:1009E0008F7702C084B58F7D84BD08958091B0005B
:1009F0008F7703C08091B0008F7D8093B000089501
:100A0000CF93DF9390E0FC01E056FF4F2491FC016F
:100A1000EC54FF4F8491882349F190E0880F991F8F
:100A2000FC01EE52FF4FA591B49188539F4FFC01FA
:100A3000C591D4919FB7611108C0F8948C9120950D
:100A400082238C93888182230AC0623051F4F89407
:100A50008C91322F309583238C938881822B8883CD
:100A600004C0F8948C91822B8C939FBFDF91CF911F
:100A700008950F931F93CF93DF931F92CDB7DEB7E7
:100A8000282F30E0F901E457FF4F8491F901E05637
:100A9000FF4F1491F901EC54FF4F04910023C9F06A
:100AA000882321F069830E94D7046981E02FF0E058
:100AB000EE0FFF1FE853FF4FA591B4919FB7F89435
:100AC0008C91611103C01095812301C0812B8C93FF
:100AD0009FBF0F90DF91CF911F910F9108951F92AB
:100AE0000F920FB60F9211242F933F938F939F93E2
:100AF000AF93BF9380913D0190913E01A0913F0142
:100B0000B091400130913C0123E0230F2D3720F4B8
:100B10000196A11DB11D05C026E8230F0296A11D57
:100B2000B11D20933C0180933D0190933E01A09321
:100B30003F01B09340018091410190914201A09109
:100B40004301B09144010196A11DB11D8093410163
:100B500090934201A0934301B0934401BF91AF91A0
:100B60009F918F913F912F910F900FBE0F901F90EB
:100B700018952FB7F89460913D0170913E018091D6
:100B80003F01909140012FBF08953FB7F8948091A5
:100B9000410190914201A0914301B091440126B5D9
:100BA000A89B05C02F3F19F00196A11DB11D3FBFA5
:100BB0006627782F892F9A2F620F711D811D911D35
:100BC00042E0660F771F881F991F4A95D1F7089555
:100BD000CF92DF92EF92FF92CF93DF936B017C0174
:100BE0000E94C505EB01C114D104E104F10479F0C0
:100BF0000E94C5056C1B7D0B683E7340A0F381E02D
:100C0000C81AD108E108F108C851DC4FECCFDF91D8
:100C1000CF91FF90EF90DF90CF900895789484B5B6
:100C2000826084BD84B5816084BD85B5826085BDE8
:100C300085B5816085BDEEE6F0E0808181608083CE
:100C4000E1E8F0E0108280818260808380818160B1
:100C50008083E0E8F0E0808181608083E1EBF0E078
:100C6000808184608083E0EBF0E08081816080831C
:100C7000EAE7F0E080818460808380818260808305
:100C80008081816080838081806880831092C10030
:100C90000895FC0124853585F901E05CFF4F8081D2
:100CA0009181F901EE5BFF4F20813181821B930B13
:100CB0008F7399270895FC0184859585FC01E05C7C
:100CC000FF4F40815181FC01EE5BFF4F208131815C
:100CD0004217530741F00190F081E02DE80FF91F12
:100CE000808190E008958FEF9FEF0895FC01848547
:100CF0009585FC01E05CFF4F40815181FC01EE5B7A
:100D0000FF4F208131814217530779F0A081B181D3
:100D1000A80FB91F8C91208131812F5F3F4F2F7316
:100D200033273183208390E008958FEF9FEF08955C
:100D3000FC0181A1882329F0A489B5898C9186FFC3
:100D4000FBCF11A20895CF93DF93FC012685378551
:100D5000D901A05CBF4F8D919C91119701968F7323
:100D60009927E901CE5BDF4F4881598184179507A8
:100D7000D9F30D90BC91A02DA20FB31F6C93A68543
:100D8000B785A05CBF4F11969C938E93A689B789B7
:100D90002C9181E090E0078C02C0880F991F0A9483
:100DA000E2F7282B2C9381E081A30488F589E02DBC
:100DB00080818064808381E090E0DF91CF9108950D
:100DC00008951F920F920FB60F9211242F933F9305
:100DD0004F938F939F93EF93FF938091C00082FD79
:100DE0001CC04091C6008091EB019091EC010196EE
:100DF0008F7399272091ED013091EE0182179307AF
:100E000071F0E091EB01F091EC01E555FE4F40836C
:100E10009093EC018093EB0102C08091C600FF919A
:100E2000EF919F918F914F913F912F910F900FBE16
:100E30000F901F90189585E491E00E944906892B38
:100E400011F00C94E00608951F920F920FB60F92C6
:100E500011242F933F938F939F93EF93FF932091B0
:100E6000A7013091A8018091A9019091AA012817AA
:100E7000390731F48091C1008F7D8093C10014C087
:100E8000E091A901F091AA01E959FE4F20818091DA
:100E9000A9019091AA0101968F7399279093AA01B5
:100EA0008093A9012093C600FF91EF919F918F91AC
:100EB0003F912F910F900FBE0F901F901895CF92DA
:100EC000DF92EF92FF92CF93DF93EC016A017B01F7
:100ED000411581EE580761057105F9F0EC89FD892E
:100EE00081E090E008A002C0880F991F0A94E2F701
:100EF000808360E079E08DE390E0A70196010E9495
:100F00000F0B2150310941095109569547953795E5
:100F10002795211580E1380798F0EC89FD8910822A
:100F200060E874E88EE190E0A70196010E940F0B43
:100F30002150310941095109569547953795279513
:100F4000E889F9893083EA89FB89208319A2EE892F
:100F5000FF89408181E090E09C010C8C02C0220F4F
:100F6000331F0A94E2F7422B4083EE89FF894081C8
:100F70009C010D8C02C0220F331F0A94E2F7422B12
:100F80004083EE89FF8940819C010E8C02C0220FB4
:100F9000331F0A94E2F7422B4083EE89FF892081B8
:100FA0000F8C02C0880F991F0A94E2F78095822364
:100FB0008083DF91CF91FF90EF90DF90CF900895E5
:100FC000109248011092470188EE93E0A0E0B0E053
:100FD0008093490190934A01A0934B01B0934C0137
:100FE0008BE091E090934601809345018BEA91E07C
:100FF000909352018093510187E691E090935401C0
:101000008093530185EC90E09093560180935501B5
:1010100084EC90E0909358018093570180EC90E02D
:1010200090935A018093590181EC90E090935C0178
:1010300080935B0182EC90E090935E0180935D0170
:1010400086EC90E09093600180935F0184E0809350
:10105000610183E08093620187E08093630185E012
:101060008093640181E08093650108950E940E06DB
:101070000E941102CBE1D7E00E94B0032097E1F378
:101080000E941B07F9CF3F924F925F926F927F921F
:101090008F929F92AF92BF92CF92DF92EF92FF9288
:1010A0000F931F93CF93DF9300D000D0CDB7DEB75F
:1010B0008B0129013A0190910201981721F09F3F7D
:1010C00009F0D3C104C0ECEDF0E0349081C080930E
:1010D0000201ECEDF0E0E491EF3F09F4C6C1E1302C
:1010E00031F1E23009F44BC0E11171C014BC15BC00
:1010F00094B5926094BD95B5916095BD282F30E070
:10110000F901EC54FF4FE491F0E0EE0FFF1FE853BC
:10111000FF4F459154915093FF014093FE01F90117
:10112000E056FF4F24912093FD01312C53C01092C3
:1011300080001092810090918100986090938100CE
:1011400090918100916090938100282F30E0F90107
:10115000EC54FF4FE491F0E0EE0FFF1FE853FF4F18
:10116000459154915093F8014093F701F901E056ED
:10117000FF4F24912093F601332433942BC0109217
:10118000B0001092B1009091B00092609093B000C6
:101190009091B10091609093B100282F30E0F90157
:1011A000EC54FF4FE491F0E0EE0FFF1FE853FF4FC8
:1011B000459154915093F1014093F001F901E056AB
:1011C000FF4F24912093EF0152E0352E03C03E2EB5
:1011D00037FC4BC161E00E9400054801A12CB12CF5
:1011E000832D8D7F09F0C0C060E072E18AE790E056
:1011F000A50194010E94310B29833A834B835C83C0
:1012000069017A0181E0C81AD108E108F1089FEF6D
:10121000C916D104E104F10409F008F49AC060E4AD
:1012200072E48FE090E0A50194010E94310B690106
:101230007A01E1E0CE1AD108E108F108F2E03F12AC
:1012400019C08FEFC816D104E104F10409F008F4C5
:1012500087C060E970ED83E090E0A50194010E94F1
:10126000310B69017A0191E0C91AD108E108F1084E
:1012700083E001C082E0EFEFCE16D104E104F10477
:1012800009F008F467C068E478EE81E090E0A50119
:1012900094010E94310B69017A01F1E0CF1AD10863
:1012A000E108F1083320E1F082E038121BC09FEF23
:1012B000C916D104E104F10409F008F4D4C064E2D1
:1012C00074EF80E090E0A50194010E94310B690168
:1012D0007A01E1E0CE1AD108E108F10885E003C007
:1012E00083E001C084E0FFEFCF16D104E104F104F4
:1012F00089F180F162E17AE780E090E0A501940154
:101300000E94310B69017A0181E0C81AD108E10815
:10131000F108311002C084E001C086E09FEFC916D9
:10132000D104E104F104B1F0A8F0C980DA80EB80C7
:10133000FC809AE0F594E794D794C7949A95D1F7F6
:10134000E1E0CE1AD108E108F108332031F087E05E
:1013500008C081E0332011F004C085E085BD34C0B1
:1013600082E08093B10030C060E072E18AE790E0F3
:10137000A50194010E94310B69017A01F1E0CF1AB5
:10138000D108E108F108C114D10481E0E806F104B4
:1013900088F068E478EE81E090E0A50194010E9475
:1013A000310B69017A0191E0C91AD108E108F1080D
:1013B00093E001C091E0E1E03E1206C0809181001F
:1013C000887F892B8093810041145104610471044A
:1013D00071F0D801AA0FBB1FA30192010E94040B58
:1013E00028EE33E040E050E00E940F0B03C02FEFE7
:1013F0003FEFA901F1E03F16A1F082E0381619F1A4
:10140000311033C0C7BC20930002309301024093D7
:1014100002025093030280916E00826080936E00FE
:1014200024C0D0928900C09288002093F9013093A3
:10143000FA014093FB015093FC0180916F008260A0
:1014400080936F0012C0C092B3002093F2013093DA
:10145000F3014093F4015093F50180917000826094
:101460008093700002C084E07CCF0F900F900F90AB
:101470000F90DF91CF911F910F91FF90EF90DF9030
:10148000CF90BF90AF909F908F907F906F905F9024
:101490004F903F900895813039F018F0823051F02C
:1014A000089510926E00089580916F008D7F809353
:1014B0006F000895809170008D7F8093700081E0AF
:1014C0008093B0008091B100887F84608093B100E8
:1014D0001092B3000895CF93C82F809102018C130E
:1014E00007C0ECEDF0E084919FEF9093020101C002
:1014F0008FEF0E944B0A60E08C2FCF910C9439053E
:101500001F920F920FB60F9211242F933F934F9378
:101510005F936F937F938F939F93AF93BF93EF935B
:10152000FF938091F2019091F301A091F401B091A9
:10153000F501892B8A2B8B2B51F19091EF01E091D2
:10154000F001F091F1018081892780838091F2017F
:101550009091F301A091F401B091F50118161906CC
:101560001A061B06C4F48091F2019091F301A09138
:10157000F401B091F5010197A109B1098093F2013D
:101580009093F301A093F401B093F50104C080910E
:1015900002010E946B0AFF91EF91BF91AF919F9161
:1015A0008F917F916F915F914F913F912F910F900C
:1015B0000FBE0F901F901895CF92DF92EF92FF927F
:1015C0000F931F93CF93DF936C017A01EB01E60E2B
:1015D000F71E00E010E0CE15DF0561F06991D6013D
:1015E000ED91FC910190F081E02DC6010995080F65
:1015F000191FF1CFC801DF91CF911F910F91FF907B
:10160000EF90DF90CF9008950E94560BA59F900D0C
:10161000B49F900DA49F800D911D11240895A1E207
:101620001A2EAA1BBB1BFD010DC0AA1FBB1FEE1F5C
:10163000FF1FA217B307E407F50720F0A21BB30BA7
:10164000E40BF50B661F771F881F991F1A9469F723
:1016500060957095809590959B01AC01BD01CF017F
:101660000895052E97FB1EF400940E94480B57FD29
:1016700007D00E940F0B07FC03D04EF40C94480BCC
:1016800050954095309521953F4F4F4F5F4F0895AE
:1016900090958095709561957F4F8F4F9F4F0895DE
:1016A000EE0FFF1F0590F491E02D0994A29FB00169
:1016B000B39FC001A39F700D811D1124911DB29F86
:0E16C000700D811D1124911D0895F894FFCF27
:1016CE00DB03FFFF00000000000000A306DC0A4958
:0816DE000676065B0698060083
:00000001FF
